:4000000000800020110000007D0600007D06000010B500F03BFBC04610B51222184B1A60302000F0CDFD174A174B1A600024174B1C60174B174A1A60B8214901164A1160C8
:40004000164A1A6088218901154A1160154A1A6080221206144B1A608022D202134B1A604122134B1A600132124B1A601249082000F0F0FC082000F0E1FC104B1C6010BDAC
:40008000300010400600008004010B40000301400000014040FF00800403014041FF00800803014042FF008008010B4000010B404C010140080101403D0E00000C020B4075
:4000C00010B572B601224A4B1A7000240FE049486200131959000B00411889881A5AC31858880004104300F0C3FA0134E4B2012CEDD940490C3140485C3000F08FFA8022EB
:4001000052003E4B1A80FF3A3D4B1A70A9323D4B1A60CC2292053C4B1A60EE2212023B4B1A6099223A4B1A60C0229200394B1A60394A3A4B1A6099231B04394A1360802158
:400140008903384A1160384A1360D0210906374A1160374A1360374A1360374A1360374A136080218904364A1160364A13601F23354A1360354A136035490B783C229343DC
:4001800014221343DBB20B70324A117816230B43DBB213700223304A136031212F4A1160BF202F4A10602F482F4A1060C0202F4A1060D82000042E4A106048202D4A10609D
:4001C00004222D480260D82424012C4804602C4803602C4801602C490B602C4B1A607D32FF322B4B1A60FFF717FF00F031FA10BD1C700F4018370000183A000000600F409D
:4002000002600F40000002400001024000030240000402400005024003030300000B024000500F4008500F4010500F4018500F4020500F4040500F4050500F4060500F4028
:4002400068500F4070500F402000104000800F4001700F4000700F400000044008000440000B044096654500080B04400001044008010440080204400C02044008030440B3
:40028000000404400804044018040440000504400805044010B5064C2378002B07D1054B002B02D0044800E000BF0123237010BD800100200000000088360000084B10B5C4
:4002C000002B03D00749084800E000BF07480368002B00D110BD064B002BFBD09847F9E7000000008401002088360000C00000200000000010B5074800F096FE064800F01F
:4003000093FE00F043FF002000F020FA00F0CAFE10BDC0468C360000A036000010B5054800F082FE044800F07FFE00F02FFF00F0EFFE10BDA4360000A036000010B50548E8
:4003400000F072FE044800F06FFE00F01FFF00F017FF10BDB8360000A0360000D0B500F0FBF90400314B1B68002B16D12F4B5B68984202D100F00AFF0FE0984206DC0120A2
:4003800000F04CFA01222A4B1A6006E0002000F045FA01225242264B1A60244B5A68101B1B68984205DA224A12689B1A1F4A136008E0204A1268934204DA1D4A1268D318C4
:4003C0001A4A1360194B1868C317C0185840184C03F068F8A268E36802F040FA06000F00226963693000390001F014FE00F0DAFF02000B000020104901F00CFE03F01CF897
:40040000040001000D4801F0AFF90D4B984203DC200000F0DFFE05E00A4800F005FE0A4800F002FE00F04EFFD0BDC0469C010020C80000201C02002080842E4140420F00A8
:4004400087130000C8360000A036000010B5084B58600A22074903F0C8F800F0E5FD064800F0E2FD054800F0DFFD00F059F910BD9C010020FC01002014370000A0360000FD
:4004800010B5034B5B68C018FFF7E0FF10BDC0469C01002070B562B6504800F0F5FD504800F028FE4F4800F05DFE4F4800F0FCFE00F0A4F900F0A8FE00F026FD4B4800F0A8
:4004C000B3FD4B4800F0B0FD4A4B9B68002B04D149484A494A4B18615961494EB469F5692000290002F0A8FF02F0DCFF22002B0002F0B4F93269736901F08CFD0022414B4C
:4005000002F0ACF9B268F36801F084FD3E4C02F093FF20603D4800F087FD20680A223C4903F063F800F080FD3A4800F07DFD304800F07AFD00F010F900F05CFD642804D154
:400540002F4B186AFFF79CFFF4E7612805D12C4B186A4042FFF794FFECE777281CD1284B1B6AC72B03DC5B00254A136202E0C822234B1A62284800F057FD214B186A0A22C5
:40058000234903F032F800F04FFD224800F04CFD174800F049FDCDE77328CBD1184B1B6A012B05DDDA0FD3185B10154A136202E00122134B1A62184800F036FD104B186A0B
:4005C0000A22134903F011F800F02EFD114800F02BFD074800F028FDACE7C046F50200001D0300003D0300005D030000F8360000A03600009C010020CDCCCCCCCCCCFC3F72
:40060000C80000200000E03F1C02002000370000FC010020143700000C370000F0B50025002711E0BB00C658F3B2FF22964308E06A008A181478A419527822700135013B2E
:40064000DBB2002BF4D10137112FEBD9F0BDC0460323044A1360044A13600022034B1A607047C0463000304030003140000E3F4010B50A00002102F0C5FF10BD10B502F0C7
:4006800071FF03680C2B00D1FEE7FEE770B50F4E0F4D13E029686B68AC68002202E001C901C30432A242FAD1E868002202E0002102C304328242FAD11035013E002EE9D162
:4006C00002F056FFFFF7E6FEFEE7C04601000000C03B000010B50E4A136801218B43136000230AE0032B03D89A000A49505800E009489900094A885001332F2BF2D9FFF708
:40070000DFFC034A116801230B43136010BDC04600001040000000007D06000000000020034A117880235B420B43DBB21370704771000F40014B18707047C04683000F401F
:40074000014B1878C0B2704763000F40014B18607047C04600200F40024B1B78024B18687047C04600000F4000210F40014B18687047C04600210F40014B18607047C0462F
:4007800080200F40014B18607047C046C0200F4010B501E0FFF7EAFFFFF7D2FF4306F9D410BDC04610B5134B1A7807218A431A701A7804398A431A70FFF7EAFF0224644260
:4007C0002000FFF7D9FF2000FFF7C0FF0120FFF7B1FFFFF7B5FF8020FFF7D4FF00F081FD054A117810230B43DBB2137000F07DFD10BDC04671000F4093000F4010B5064B90
:400800001B78002B04D1FFF7CDFF0122024B1A70FFF786FF10BDC046AC010020014B18707047C04670000F40074B1B78272B05D8064B1B78DBB2064A136004E0054B1B78EF
:40084000DBB2034A1360704702F3FF0F42F3FF0F20FF0B40C1F1FF0F00230AE0204A12683F210A401F49C95C8A4201D1033303E001332D2BF2D903231B4A12781B2A16D886
:40088000302B05D1194B1B78DBB2194A136006E0182B04D1174B1B78DBB2154A136016490B681F229343173A13430B6016E0302B05D1124B1B78DBB20D4A136006E0182BC9
:4008C00004D10F4B1B78DBB2094A13600A4A13681F218B430B4909780B4313607047C0462CFF0B40BC3A000002F3FF0F3FF3FF0F28FF0B403EF3FF0F34FF0B40C3F1FF0F13
:40090000C2F1FF0FC0F1FF0F00230AE00D4A12683F210A400C49C95C8A4201D1033303E001332D2BF2D9032308490868084A02400A60084A944663441B78DBB2064A13608C
:400940007047C0462CFF0B40BC3A000000002240FFFFFFBF4DF3FF0F28FF0B40034B18688023DB05184000D0012070470000224010B50B4A136801218B431360094B1A68EF
:40098000094B1A60094A12685A60FFF765FFFFF74BFF074A116802230B43136010BDC04650000C4034FF0B40B001002020FF0B4024002C4030B500230AE0134A12683F21B7
:4009C0000A401249C95C8A4201D1033303E001332D2BF2D903230E490A68022082430A600C4C21681F2291430B4805682A400A4322604168094A1160094A944663441B781C
:400A0000DBB2084A136030BD2CFF0B40BC3A000024002C4034FF0B40B001002020FF0B404DF3FF0F28FF0B40034B1B680220184000D001207047C04624002C401F231840DF
:400A40001E3B8340014A13607047C04600E100E001BE704770B504000D001F2802D90020FFF7F6FF1034A40080239B059C4664442068256070BDC04610B5040006E0084B4E
:400A8000586800F025FC074B9C46644480231B029C42F4D8024B9868604300F019FC10BDF80000200080FFFF70B582B000F070F9002862D000F015FC0500314A116801239F
:400AC0000B43136000230AE02E4A12683F210A402D49C95C8A4201D1033303E001332D2BF2D903230021294A1160294A1268D20606D1274802681F318A4313390A4302602B
:400B0000244C2168244A1140244A5A438023DB019C466244D20B013A5205520D0B001343A0225203134323601D4B1B680193302000F0DEFB1B4A13688021C9050B43136024
:400B40002668194B1E40002407E00120FFF794FF1034A30533430F4A1360EE2CF5D90120FFF78AFFFF239B051E430A4B1E60019A0B4B1A60280000F0B8FB02B070BDC046A9
:400B800050000C402CFF0B40BC3A000028FF0B4034FF0B400800224000F800C040420F003000104000002240FFFF3FC010B5034B1B7B584300F08CFB10BDC046F800002005
:400BC000F0B55F4656464D464446F0B483B0040000F087FB0190FFF7C1FE002804D0FFF793FE01239A4601E000239A46FFF71CFF002808D0182C01D0302C07D1FFF7DAFECC
:400C000001239B4604E000239B4601E000239B46E61E2D2E74D8464B1B78DBB29C4208D8444B1B78DBB29946434B1B78DBB2984631E0424B1B78DBB29C4208D8404B1B7814
:400C4000DBB299463F4B1B78DBB2984623E03E4B1B78DBB29C4208D83C4B1B78DBB299463B4B1B78DBB2984615E03A4B1B78DBB29C4208D8384B1B78DBB29946374B1B781D
:400C8000DBB2984607E0364B1B78DBB29946354B1B78DBB29846344B9F5D2F2F09D92A2C07D91922314B1A60052000F011FB192503E02E4B1D683F231D40BD4206D92A4B70
:400CC0009A5D2A4B1A60052000F002FB254B9C4664442378DBB2264A1360264B4A461A60254B42461A600520FFF760FFBD420AD21D4B9A5D1D4B1A60052000F0E9FA02E09A
:400D00000020FFF7A5FE5346012B01D1FFF7CCFE5B46012B01D1FFF72BFE019800F0E5FA03B03CBC90469946A246AB46F0BDC04640F3FF0F41F3FF0F42F3FF0F43F3FF0F87
:400D400044F3FF0F45F3FF0F46F3FF0F47F3FF0F48F3FF0F49F3FF0F4AF3FF0F4BF3FF0F4CF3FF0F4DF3FF0FBC3A00002CFF0B4028FF0B401CFF0B4020FF0B40034B186818
:400D8000C0231B02184000D00120704700010B40034B1B68002B01DA012000E0002070470000224010B500F09CFA044A1368C02109020B43136000F098FA10BD00010B407A
:400DC00010B500F08EFA08490A68084B1A408024E40122430A600A6813408022120213430B6000F082FA10BD00010B40FF3FFFFF70B5050000F075FA0400FFF7BFFF002888
:400E000003D0FFF7DDFF012100E0002108482840084A1568084B2B40184310601368012901D1FFF7BFFF200000F05FFA70BDC0460404040010020B40FBFBFBFF10B5244B86
:400E40001B685B0715D5234B5B685B070ED5224B596A042001401F4C62688A4362605A6A82435A629B69002B00D098470420FFF7BFFF174B1B685B0518D5164B5B685B0523
:400E800010D5154B596A8022D2001140114842688A434260596A114A0A405A62DB69002B00D098478020C000FFF7A2FF084B1B685B030CD5074B5B685B0304D5064B1B6A83
:400EC000002B00D098478020C002FFF791FF10BD10020B400C010020D0010020FFFBFFFF10B500F075F810BD10B500F01DF810BD10B5044A1368802109060B431360FFF775
:400F0000EFFF10BD0000244010B5064B1B78002B04D1FFF7E9FF0122024B1A70FFF7E8FF10BDC046F8010020154A164B1A600023154A13601549164A1160164A16490A60C1
:400F400007201649086016490B6006381549086015490A60154A13600421154A1160154A1360154A1360154A1360154A1360154A1360154A13601268144B1A807047C0460A
:400F80000B000002000024404000244001000A00480024400700008000032440040324401003244044002440000224400402244050002440880E2440C80E2440480F24407A
:400FC000080F2440C80F2440880F2440FA01002005490B68F0229343603A13430B60034B1A88034B1A60704700040240FA010020880F244010B500F0BFF9002802D000F0FF
:40100000B5F901E0064B1868064A1368D821890011601B02D82292021340184310BDC04640032440C00F244070B50500002402E000F0AAF90134285D0028F9D170BDC046EA
:40104000014B98647047C0460000002010B5040000F047F9044A1168044B0B40A4051C43146000F042F910BD00E400E0FFFF3FFF0422014B1A60704700E100E00422014BA7
:401080001A60704780E100E010B50400FFF7F6FF2000FFF7D5FF0320FFF7D8FFFFF7E8FF10BDC0460422014B1A60704780E200E0014BD8647047C0460000002010B504006D
:4010C00000F00FF9044A13689B009B08A4071C43146000F00AF910BD00E400E00822014B1A60704700E100E00822014B1A60704780E100E010B50400FFF7F6FF2000FFF7D5
:40110000D7FF0320FFF7DAFFFFF7E8FF10BDC0460822014B1A60704780E200E0014B58647047C0460000002010B5040000F0D9F8044A1168044B0B40A4031C43146000F014
:40114000D4F810BD00E400E0FF3FFFFF0222014B1A60704700E100E00222014B1A60704780E100E010B50400FFF7F6FF2000FFF7D5FF0320FFF7D8FFFFF7E8FF10BDC04654
:401180000222014B1A60704780E200E0024A11787F230B401370704774000F40014B18707047C04686000F40014B1878C0B2704766000F4010B50100014800F0C3F810BDE6
:4011C00004000F4010B5024800F0C6F810BDC04644000F4010B50100014800F0B3F810BD24000F4010B50100014800F0ABF810BD34000F4010B501E0FFF7E4FFFFF7D4FF55
:401200004306F9D410BDC04610B513490B780722934301221343DBB20B700B78032293430B70FFF7E7FF0D48FFF7D4FF0020FFF7C1FF0020FFF7B2FFFFF7B6FF6420FFF7EC
:40124000D1FF00F04EF8064A117810230B43DBB2137000F04AF810BD74000F40FEFFFF0096000F40014B18657047C0460000002010B5040000F035F8044A1368C0218B4357
:40128000A4011C43146000F030F810BD04E400E01022014B1A60704700E100E01022014B1A60704780E100E010B50400FFF7F6FF2000FFF7D7FF0320FFF7DAFFFFF7E8FF3A
:4012C00010BDC0461022014B1A60704780E200E00230800803D00138FDD1C046C046C0467047EFF3108072B6704780F31088704770B50400FFF7F5FF0500102C05D8104A2F
:40130000136803218B43136016E0202C07D80C490B6803229343023A13430B600CE0302C07D807490B6803229343013A13430B6002E00020FFF78CFB2800FFF7D6FF70BD6C
:4013400030001040CBB203700B0ADBB24370090CC9B281707047C0460378427812021A4383781B041A4310007047C046014B18687047C04640032440024B1B681F201840E9
:401380007047C04608032440044B1B681F221340082BF9D0024B18607047C0460802244040022440F0B546464F46C0B48DB004000D0000F057F8294B009001911B785BB20C
:4013C0009846013312D022002B002000290002F013F88146002809D10026002732003B002000290000F0C2FA002806D1009801990DB00CBC90469946F0BD01230293184BBA
:401400000694079503934B460A93434604940595002B15D03B0032003000390000F0FAFD434608900991022B0CD102F09BF8212303600A9B0093002B0AD108980999D7E7FB
:401440000896099702A800F003F90028F1D1ECE702F088F80A9B00930360EEE714010020EC3A0000F0B556464D4644465F46754BF0B40A000D00190083B006000400294061
:40148000994200D1BAE0002D00DC94E02D1500D1A3E06D4B12039C468023120B5B0365441A43EB0700D581E06B109846E30F9B189B18802216210026002764009203B81838
:4014C000984202DC87181B1AB618E00F5B0001391B18640052080029F1D1002201929446802212062020914609E09F4241D0E10FC9180138CB186400520800281ED061468F
:4015000051189F42F1DA8D18AC46CD0FED07BA464D4539D0DB1B8C42BF417F42DB1B641A019901388B46934459460191E10FC9185746CB18640052080028E0D123432BD1A5
:40154000019B5B08414972108C466244F10702D5802109060B43414609058D181E002F003000390003B03CBC90469946A246AB46F0BDA1420ED88D18AC46CD0FED074D4583
:4015800048D09A460023CAE76546002DC2DB7D1CAA46BFE73B00AAE7019B01333ED0019A01239446134063445B08CBE7E30F52009A18640078E76B005B0803432F00002B42
:4015C000CED00025002A31D1E20A153D6405002AFAD080235B031A4223D180200023400300E00B005200591C0242FAD02020401AED1A2300C3408C401A434AE702002B00FC
:40160000290001F02BF932002B0000F0D7F906000F00A5E76546002DB9DAB2E70136002390E7012320205B420021E1E73B000200390001F08DFB02000B0000F0EBFC060016
:401640000F008DE70000F07F01FCFFFF0000E03F00207047002243088B4274D303098B425FD3030A8B4244D3030B8B4228D3030C8B420DD3FF22090212BA030C8B4202D3CF
:401680001212090265D0030B8B4219D300E0090AC30B8B4201D3CB03C01A5241830B8B4201D38B03C01A5241430B8B4201D34B03C01A5241030B8B4201D30B03C01A524164
:4016C000C30A8B4201D3CB02C01A5241830A8B4201D38B02C01A5241430A8B4201D34B02C01A5241030A8B4201D30B02C01A5241CDD2C3098B4201D3CB01C01A5241830979
:401700008B4201D38B01C01A524143098B4201D34B01C01A524103098B4201D30B01C01A5241C3088B4201D3CB00C01A524183088B4201D38B00C01A524143088B4201D38F
:401740004B00C01A5241411A00D20146524110467047FFE701B5002000F0F0F802BDC0460029F7D076E7704703460B437FD4002243088B4274D303098B425FD3030A8B42F0
:4017800044D3030B8B4228D3030C8B420DD3FF22090212BA030C8B4202D31212090265D0030B8B4219D300E0090AC30B8B4201D3CB03C01A5241830B8B4201D38B03C01A78
:4017C0005241430B8B4201D34B03C01A5241030B8B4201D30B03C01A5241C30A8B4201D3CB02C01A5241830A8B4201D38B02C01A5241430A8B4201D34B02C01A5241030AFD
:401800008B4201D30B02C01A5241CDD2C3098B4201D3CB01C01A524183098B4201D38B01C01A524143098B4201D34B01C01A524103098B4201D30B01C01A5241C3088B42BE
:4018400001D3CB00C01A524183088B4201D38B00C01A524143088B4201D34B00C01A5241411A00D201465241104670475DE0CA0F00D04942031000D34042534000229C4610
:4018800003098B422DD3030A8B4212D3FC22890112BA030A8B420CD3890192118B4208D3890192118B4204D389013AD0921100E08909C3098B4201D3CB01C01A52418309E2
:4018C0008B4201D38B01C01A524143098B4201D34B01C01A524103098B4201D30B01C01A5241C3088B4201D3CB00C01A524183088B4201D38B00C01A5241D9D243088B42F7
:4019000001D34B00C01A5241411A00D20146634652415B10104601D34042002B00D54942704763465B1000D3404201B5002000F005F802BD0029F8D016E770477047C046C5
:401940008446101C62468C46191C634600E0C0461FB500F019FF002801D40021C8421FBD10B500F06DFE4042013010BD10B500F00BFF002801DB002010BD012010BDC0460F
:4019800010B500F001FF002801DD002010BD012010BDC04610B500F093FE002801DC002010BD012010BDC04610B500F089FE002801DA002010BD012010BDC046F8B55646F6
:4019C0005F464D464446F0B40F00FD0FAA4609037C002E005F00450F490A7F0D2943C5001803BC46400A570F640DDB0F3843D2009A4500D1AAE06646A61B002E00DCFFE0F8
:401A00006346002B39D10300134300D0D9E06B0709D00F232B40042B05D02B1DAB42AD416D4249191D000B0200D482E0CA4B01349C4200D1FEE00A005646C84BED081A4087
:401A40005007640552020543120B640D002112030B0D1B056405120B1A436308C04CF60714401C43640064083443280021003CBC90469946A246AB46F8BDB74B9C42C6D0C3
:401A800080231B041843382E00DDEBE01F2E00DD1EE120239B1B9C4603006746BB40984613004746F3403B436746BA40571EBA4113430200F240EB1A9D42B6411D008A1AE0
:401AC0007642911B0B0231D54A02560A002E00D1B4E0300001F028FD0300083B1F2B00DDB5E020222900D21AD1409E400A009D4032439C4200DDB1E01C1B631C1F2B00DD1D
:401B0000D5E0202114002800C91A8C40D8408D400443DA40681E854111002543002476E74146314300D134E2310045466B0700D06FE756464807ED08C9080543864B9C425A
:401B400035D00A036405120B640D7FE76346E31A9B46002B00DC8BE06746002F3CD07E4FBC4200D153E780273F0438435B46382B00DCF7E00243501E82410020D2B253199D
:401B80004218AB4289411D00494289180B02CDD5714B01349C4200D13DE101206F4A6B080A4028401843D507054351082FE72B000B4300D1CBE180231B030B431A03120B32
:401BC00044E7013E002E6DD1AE1AB5429B41091A5B42C91A350075E70700174300D116E701235B429C46E3445B46002B00D0E0E0AA18AA429B4109185B4259181500C5E771
:401C0000002E75D1661C7605760D012E00DCF3E0AE1AB0464545BF410E1A7F42F61B370200D48FE0551BAA42B641411A76428E1B9A464BE756460022002507E7280001F009
:401C400073FC20300300083B1F2B00DC49E72A002838824000259C4200DC4DE73F49E41A1140D4E60243501E8241D3B2002222E7002B00D0F3E0631C9C465B055B0D012BD0
:401C800000DC9FE0344B9C4500D1C3E0AA180918AA42804140424118CD075208154349086446B4E62C4B9C4200D0ECE6AFE611001F3CE1400C00202B00D17FE04021CB1A89
:401CC0009A4015436A1E95410021254300242DE733000700203BDF403B00202E70D04027BE1BB0400243501E824113430022E2E6002C4FD0184CA44500D1ABE08024240470
:401D000076422143382E00DDDFE01F2E00DD43E12027BC1BA1460C004F46BC40A0462C004746F4403C434F46BD406F1EBD41F1402C43151BAA429241411A5242891A64465B
:401D40009A46BFE641464546314300D0BEE6002600240025F2E6C046FF070000FFFF7FFFFFFF0F801F2B59DC2027FF1ABC46070063469F405B46B9461700DF40B8464F46AF
:401D800043461F4363469A40531E9A415B463A43D840F4E60C002C435CD0F643002E55D1551BAA42A441411A6442091B9A46644688E6964FBC4200D0D8E628E6002280E7BF
:401DC00000208FE70B002B43002C00D0C2E0002B00D101E10300134300D118E6AB18AB42B6410918764271180A0200D409E1884A1D00114064460AE6002C5BD10E002E43AC
:401E000000D08AE00100114300D1C2E0010015009A46FCE56446002100258FE620235B429C46DC4463460700DF405B46BC46202B00D1ACE040235F46DB1B98400243501EDF
:401E40008241634613431A00002098E66F4CA44500D057E70100150064469A46D7E5002C39D10C002C436ED0DB43002B1AD0674CA44568D0382B00DDA4E01F2B00DDAEE06B
:401E800020240F00E41AA740B9462F00DF40B846A3464F46444627435C46A5406C1EA541D9403D43AD1895429B4109185B42591864466BE60C002C4315D1010011437BD0FA
:401EC000010015009A46514CA1E50D43691E8D410021ECB22DE74D4CA44534D0802424045B422143C6E7040014434ED0ED084C072C438025C9082D03294208D0C6082E42FA
:401F000005D1D208410711430C009A463100620FC900E50011433D4C79E50600164300D175E5AE1AB0464545BF410E1A7F42F61B370200D4F4E5551BAA42B641411A7642C6
:401F4000891B9A4663E50100150064465FE5002200257BE5002B3BD00300134315D0ED084B072B438025C9082D03294207D0C4082C4204D141070B002100D2081343C9005D
:401F80005A0F1143DD00214C41E5204C3FE5002054E700260025D1E534000F00203CE7403C00202E2BD04027BE1BB1400D43691E8D4100212C43BCE6802100260903134C83
:401FC0000025BBE50D43691E8D410021EDB269E7010015000D4C1AE50100150017E51C000F00203CE7403C00202B0CD04027FB1A99400D43691E8D410021254352E70021F9
:40200000D4E71D0092E50021F3E7C046FF070000FFFF7FFFF0B556464D4644465F46F0B41D000E034C00CB0F87B0070092468146360B640D98466AD06D4B9C4235D08022EF
:40204000430F12041343F6001E43C3009946694B00279C460023644402932B0368001B0BED0F51469B46400D009500D178E0604B98426CD05B46DA004B0F802109040B43BF
:4020800013439B465346D9005A4B9C46002360444246201A6A40924601901F430F2F00D9B0E05548BF00C0598746374300D088E0002399460233082700260293CDE74346F9
:4020C000B34649460093029B009A9246022B00D0BFE1002153460122002689461A40444B002136030C0D2405360B2643434C1B0526401E437600D2077608164348463100BD
:4021000007B03CBC90469946A246AB46F0BD330003434FD0002E00D1BCE1300001F004FA03000B3B1C2B00DDADE11D220100D31A08393A008F408E40DA40B9461643304B35
:4021400000279C46002360444442029385E753465A4613432CD1002300219B46023397E70B4320D05B46002B00D19EE1584601F0DBF903000B3B1C2B00DD8FE10200594669
:40218000083A91408B461D21CB1A5146D9400B0059460B4351469B469140194B9C4660444042002374E7002300219B4601336FE703236DE7002399460133042700260293F8
:4021C0004BE703230C27029347E70122D51A382D00DCB0E153461A4000210023002689467EE700238026994600223603004B77E7FF07000001FCFFFFF43A0000FFFF0F80B4
:40220000F30300005E4500D972E100D16DE1019B4D46013B01930023340002935B461E020B0E1E430B020393330C994633041B0C494620000093FFF70DFA009B37004343DE
:402240000600494620009846FFF78AFA2C0C09040C43A04509D9E419731EA74200D95CE1A04500D859E1023EE4194346E41A49462000FFF7EFF90300009A80465343494699
:4022800020009B46FFF76CFA2A040904120C0A4393450DD94346D219013B974200D93AE1934500D837E102235B429C46D219E0445B46D21A4346360433439B460399180CFE
:4022C0000B0C1D00059309045B46090C0C001B041B0C4443049159436B4368431B190D0CEB189C4203D980246402A44660441C0C09041B04090C20185D18824200D2DEE0E0
:4023000000D1D7E0161A029B9C465D1BAC459B415B42F61AB74200D106E149463000FFF799F9009B04004343494630009846FFF717FA2E0C09040E43B04509D9F619631EB4
:40234000B74200D9F3E0B04500D8F0E0023CF6194346F31A494618000293FFF77BF9009B06004343494602989846FFF7F9F92D0409042D0C0D43A84509D9ED19731EAF425E
:4023800000D9D6E0A84500D8D3E0023EED192404210043463143049E059A3000ED1A0B040C0C1B0C58436643534354439A19030C9B189E4203D980225202944664441A0C84
:4023C00000041B04000C14191B18A54250D34DD001231943964A019B94466344002B00DCF3E64A0709D00F220A40042A05D00A1D8A42894149428B4411005A46D20108D5AA
:402400005A468C4B1A4093468022D2009446019B6344894A934200DD5BE65A46C908500708435602514601225B058146360B5B0D0A4055E680231B031E4211D05A461A4223
:402440000ED15E461E433603360B2A0089467B4B46E6032B00D1E1E0012BBBD11A40BBE61E433603360B4246744B39E6002BB1D07D194A1EAF4252D91100A542A8D1039A8B
:402480009A42A5D1A6E703003E00283B9E400023994654E601F048F8203041E603005246283B9A400021934677E6504601F03CF820305EE6029B0026AB4200D323E7039E2B
:4024C0000299B44661448846B045B6415B467642F619B218013B0291974213D290424FD800D18EE0161A9B460DE7894500D28EE674084B46F60735005B081D434B46DB0763
:4025000002938BE69742EDD10399029CA142E5D93E1A9B46F7E69846CAE61E00A5E6AC423ED874D0110053E70121494252E71C000EE71E002BE71F2D3CDC20230A005846CD
:402540005B1B9840EA4099400243481E81415E461143EE404B0709D00F230B40042B05D00B00191D99429B415B42F61833023CD55346012200211A40002601238946AFE5FE
:4025800002235B429C46039CE344A446029B63449846A045B6417642F6190293B218B1E603988A1E41008142B6417642F619AD19039161E71F225242D31A5A46DA401300D6
:4025C000202D29D040225846551BA8400143481E814107200B4318400026002809D00F2200261A401900042ABBD10B0070077602360BDB0803439946012253461A400023DD
:402600006EE502998D42BBD89B4600267BE603989842C5D3110032E70020D7E780265B4636031E433603360B009A8946034B57E5FF030000FFFFFFFEFE070000FF07000077
:40264000F0B55F4656464D464446F0B41F035C00DB0F9A46194B0E034D00C90F8046360B6D0D8B4691463F0B640D9D4219D0134B9C421BD00123A54206D018003CBC904637
:402680009946A246AB46F0BDBE42F6D1C845F4D1D34510D0002DF0D1304303005A1E9341EBE7310001230143E7D1E0E73A430123002AE2D1DEE70023DFE7C046FF07000052
:4026C000F0B55F46444656464D46F0B41F033C0B2C4F0E034D00A3465C008446360B6D0DC90F9046640DDB0FBD422BD0254FBC422ED0002D0ED130430700814678427841F4
:40270000002C17D15F463A4314D14B460020002B0AD006E0002C02D15846024301D099421AD00123484218433CBC90469946A246AB46F0BD0028F2D058425841012240426C
:402740001043F1E737000743D0D002204042EBE75F461743CDD0F8E7A542E2DC05DB5E45DFD808D000205E45DED248424841012340421843D8E7C445D3D80020C445F4D37B
:40278000D2E7C046FF070000F0B55F464D4644465646F0B41C03240BA4462F4C0F034D005E00C90F80463F0B6D0D8B469146760DDB0FA54220D0284CA64222D0002D12D191
:4027C000384344424441002E20D0002C0DD05C42634101245B421C4320003CBC90469946A246AB46F0BD002E17D05B4519D05B465C4201231C43EFE7390002240143EBD1E1
:40280000D9E7614602241143E6D1D7E761460A43DBD100240028DFD0E9E761460A43E4D1E5E7B54203DD01225C421443D4E7B542CDDB6745DBD809D000246745CCD25946D4
:402840004C426141012449420C43C5E7C845CED80024C845F3D3BFE7FF070000F0B55F4656464D464446F0B40D0399464E002B0B87B00700924680469B46760DCC0F002EC4
:4028800069D06D4B9E4235D05B468022DD001204430F13432B439B46C3009846674B00279C460023664401934A4615035000D20F53462D0B400D914600D176E05E4A9042E9
:4028C0006CD080225B0F120413435C4AED0094461D4353460022DB00604449463618701C6140029017430F2F00D9AFE05448BF00C759BF465B461F4300D088E000239B46C2
:402900009846023308270193CEE74946022A6AD0032A00D109E2012A00D0BBE111400022002300259046CCB200212D030A0D12052D0B1543434A1B0515401D436D00E407BF
:402940006D0825434046290007B03CBC90469946A246AB46F0BD034352D05B46002B00D18AE1584600F0E0FD03000B3B1C2B00DD7BE11D22D31A3A0001005D46DA400839D8
:402980008D4013008F402B439B46B8462E4B00279C46002360444642019385E752462A432CD100250023022297E752462A4321D0002D00D154E1280000F0B6FD03000B3B21
:4029C0001C2B00DD46E11D21CB1A51460200D9405346083A954093400D431B4A944660444042002279E7012400220C40124B0025904699E70025002301226EE703226CE75A
:402A000000239B4698460133042701934CE703230C27019348E700238025984600242D03054B81E75D464346019A6FE75D4643462100019A6AE7C046FF07000001FCFFFF63
:402A4000343B0000FFFF0F80F30300004246120C91461A0C9446424617044A461B041B0C5A43604690464A4642431000039262461C003F0C7A437C4342440192220C9246F1
:402A8000019A5244904506D98246802040028046C24450460390100C049048462404240C1204121905922A0C2D042D0C68432C00824648467C4350438146200C80465743B2
:402AC00057444744BA4503D9802040028046C144380C3F04B84648442404240C01900498A044404404905846000C814658460404200C8246070048465F434C464343604696
:402B000060436446834650464443380C8446E4186444A34203D980235B029C46E34448463F04230C3F0C2404E419574668436F4384464D46504655434243380C81466244BB
:402B40004A445B44944503D9802040028446654403983F04834604983F0C8446E344C345804140428246100484460198674484466744A344BC46A345A4419946D4446442A2
:402B80008742BF41D4458041E144A04699459B417F424042C8440743120CBA18A045A4415F423B0064422343D71843467D19DB0D6D021D435B465A02059B1A43531E9A4167
:402BC0005B46DB0D1A4343465B021343EA0107D501225C0813402343EA07029E13436D08574AB218002A4BDD580709D00F201840042805D0181D98429B415B42ED18030043
:402C0000E80104D54F4A15408022D200B2184E48824200DDE7E60124DB08680718436D02530580462D0B5B0D0C407DE6802259461203114208D0154206D115432D039846DF
:402C40002D0B4C46414B6FE65D4615432D032D0B3E4B69E603005546283B9D400023BCE6504600F061FC2030A8E60300283B9F400023BB46984689E600F056FC203073E669
:402C80000124A61A382E07DD00220C4000230025904649E6029EA3E71F2E20DC20222C001800921BF040944093400443581E83411C43F540630709D00F232340042B05D0BC
:402CC00023001C1D9C4292415242AD182B021FD5012400220C4001230025904624E61F202C004042821AD440202E1CD04022961BB5402B43581E8341072023431840002500
:402D0000002809D00F2200251A401C00042AD8D1230068076D022D0B0124DB08034398460C40002300E60025E3E780220124120315432D0398462D0B0C40044BF4E5C04652
:402D4000FF030000FFFFFFFEFE070000FF070000F0B557464E464546E0B40E001100F20F9246C500420F180337037400400A4E0F7F0A3043CF4E17435A00640D520DDB0F51
:402D8000C900B24200D1E5E001267340A61AB446534500D1AFE0002E00DC0DE1002A3AD103000B4300D0E4E06B0709D00F232B40042B05D02B1DAB42AD416D427F191D00AF
:402DC0003B0200D488E0BB4B01349C4200D110E13A00B94B51461A4001235007ED08520264050543120B640D0B400021280012030D0D120B64052D0515436208AF4CDB0733
:402E00002C401443640064081C4321001CBC90469946A246F0BDA74B9C42C5D080231B0418436346382B00DDFDE01F2B00DD30E1624620239B1A02009A40664690460A00D5
:402E40009940F24046464B1E99413243114363460200DA40691A8D429B410D00BA1A5B42D71A3B0235D57A02530A98464346002B00D1C4E0404600F057FB0300083B1F2BCE
:402E800000DDC5E020222900D21A4746D1409F400A009D403A439C4200DDC0E01C1B631C1F2B00DDE4E0202114002800C91AD8408C408D400443DA40681E8541170025431F
:402EC000002471E7424663461A4300D14CE2674645466B0700D069E7012351467807ED08FA080B40054373498C4238D012036405120B640D79E7002E00DC9AE0002A47D078
:402F00006C4A944200D14FE78022120410436246382A00DC08E10143481E81410022C9B24919D219A942BF410D007F42BF183A0200D442E15F4A0134944200D14EE1012036
:402F40005D4A69083A4028400843D507054357089A4629E706000E4300D017E714E72900114300D1F9E1802109030A431203120B3BE701235B429846C4446346002B72D145
:402F8000691A8D429B413F1A5B42FF1A0D0068E702000A4300D107E7012252429046C4446246002A00D0E6E06918A942B6413F187642F7190D00BAE7002E00D080E0621C61
:402FC0005205520D012A00DCF9E06A1A91464D45B6413A1A7642921B9046120200D499E04D1BA9428941C71B49427A1A90469A463CE752460123002513400022F5E6280017
:4030000000F092FA20300300083B1F2B00DC39E72A002838824000259C4200DC3EE7264FE41A1740C0E60143481E81410022C9B210E7002E00D0F1E0621C94465205520D9B
:40304000012A00DCA0E01B4A944500D1C5E06918A94292413F185242D2194908D5070D4357086446A0E6134B9C4200D0D9E69BE611001F3CE1400C00202B00D180E0402132
:40308000CB1A9A4015436A1E95410027254300241FE763460200203BDA406346202B71D0402366469B1B98400143481E814111430022CFE6FF070000FFFF7FFFFFFF0F804A
:4030C000002C48D0CA4CA24200D1A2E07442A1468024240427434C46382C00DDDBE01F2C00DD44E14E462024A41B3E00A640A246B0464C462E00E640B44646466446264379
:403100005446A5406C1EA54134002C434D46EF400D1B28E04A4643464D461A4300D0A5E6002300240025DEE61F2A5ADC66462022921B060096409146B04662460E00D640E8
:40314000424616434A4691404A1E9141020060463143C240E4E63C002C435AD0F443A146002C52D14D1BA9428941C71B49427F1A14009A4675E69E4A944200D0C7E613E603
:4031800000227FE700208FE7002C00D0C8E03B002B4300D10FE103000B4300D104E66918A9429B413F185B42DF193B0200D41AE1904B0D001F406446F6E59A4689E63A0042
:4031C0002A43002C5CD1002A75D102000A4300D1CAE007000D009A46E6E564460022002581E662460600203AD6406246B046202A00D1B7E040226646921B904001434246F3
:40320000481E8141114300228AE6794CA24200D061E707000D0014009A46C5E5002C41D13C002C4378D0F443A146002C20D0704CA24271D04C46382C00DDB2E01F2C00DD34
:40324000BCE02026341BA2463C005646B4404E46A0462C00F440A446444666463443A4465446A54064466E1EB54125434C46E7406D188D4289413F184942CF19140056E60A
:40328000002A2FD102000A4300D184E007000D009A46574C88E53D436F1EBD41ECB200270D1B60E7524CA24236D0744280263604A1463743BEE702000A4300D174E56A1AFC
:4032C00090464545B6413A1A7642921B9446120200D4F7E54D1BA9428941C71B49427F1A9A4661E502000A433AD0ED087C072C438025FA082D032A4208D0C7082F4205D166
:4033000045072C003A009A46C9080C43670FD200E5001743364C47E507000D00140043E53A002A4343D002000A4319D0ED087C072C438025FA082D032A4207D0C6082E4225
:4033400004D147073C003200C9080C43D700620FE50017439A46264C26E50022002544E5234C21E5002049E700230025BBE54C463E00203CE6404C46B446202C31D040240C
:403380004E46A61BB7403D436C1EA54164462C4300270D1BE7E6802200231203144C0025A1E53D436F1EBD410027EDB260E707000D000F4CF8E407000D00F5E44E463C0097
:4033C000203EF440A0464C46202C0ED040244E46A41BA7403D436F1EBD4144460027254346E70027CFE70D0073E50027F2E7C046FF070000FFFF7FFF70B50E4E0C031D0330
:4034000049005B00240B490D2D0B5B0DB14204D0084900208B4208D070BD04430120002CFAD1044900208B42F6D115432800451EA841F1E7FF0700000B0330B5134D1A0B37
:403440004B005B0DC90F0024AB4211DD104CA34210DC8024640322430E4CE41A1F2C0CDD0D48C31ADA4013005C42002900D11C00200030BD094BCC18FAE7E040084CA44602
:4034800063449A4013000343EEE7C046FE0300001D0400003304000013040000FFFFFF7FEDFBFFFF70B5002830D0C317C4185C40C50F200000F038F8174B184A1B1AD21AED
:4034C0001F2A18DD164AD21A9440002224035B05240B5B0D0021100024030A0D1205240B1443104A1B0514401C436400ED0764082C43210070BD210091400A000B21081A2A
:40350000C4405B052403240B5B0DE3E70025002300240022DEE7C0461E0400003304000013040000FFFF0F801C2101231B04984201D3000C10391B0A984201D3000A0839A8
:403540001B09984201D30009043902A2105C40187047C04604030202010101010000000000000000014B18687047C046780100200E4B70B500251E000D4CE41AA410A5422A
:4035800004D0AB00F35898470135F8E700F006FB084B00251E00084CE41AA410A54204D0AB00F35898470135F8E770BDA83B0000A83B0000A83B0000B03B0000931E10B5E4
:4035C0000C00222B02D9002008700DE00A2A06D1002804DA2D2340420B70012100E00021611800F017F8200010BD10B5FFF7E6FF10BD002310B59A4203D0CC5CC4540133B4
:40360000F9E710BD03008218934202D019700133FAE77047F0B58FB0170006000C002522184904A8FFF7E5FF0020BB1E0500222B01D9207023E06B1C0293E3180193300076
:40364000013B39000393FEF78BF804AB5B5C039A300013703900FDF7FDFF061E01D0029DE9E7019B187023001A1B954206DD1A78615D197062550133013DF5E720000FB091
:40368000F0BDC046763B000000000000486974206C696D697420737769746368203100000A0D0000486974206C696D697420737769746368203200004472697665722066CE
:4036C00061756C740000000053746570206672657175656E63792063617070656420617420356B487A2C20796F75206675636B65642075700000000052657374617274005D
:40370000455F6D61782069732000000053746570206973200000000000300F40000800400F400008836F86674040410549FF4AFF4BFF4DA04F0150185A045B045D095F0105
:403740006040628064406540668068406A806C406D206E8082039401AE01B001B202BE01C040C105C9FFCAFFCBFFCDAFCE07CF01D018D280D804DA04DB04DC09DD99DF01A2
:40378000E040E280E440E540E680E840EA80EC40ED20EE8007400E2017801C401D021E204040450248014D4058556801694077808201C010C220C480D081D218D60FE60404
:4037C000030131014040410549FF4AFF4BFF4DAF4E074F01501859045A045C905D095F016040628064406540668068406A806C406D206E808208840488018C089F01A2049D
:40380000A603AF02B008B102B202B404B501B601BE51C040C105C534C6C2C70EC81FC9FFCAFFCBFFCDAFCE07CF01D018D40FD604D804D904DA04DB04DC99DD99DF01E04056
:40384000E280E440E540E680E840EA80EC40ED20EE800054024010A0181019411A04204427402A4030803F024102450248A14D405148525059415A1461086210638083402E
:4038800086018D408E1091409C559F40A001A102A601C00FC40CCA08CC08CE80D081D218D60FD8070101020C0C0116031B031C082E0130023102320133013408360439A82E
:4038C0003B023E143F404035410149FF4AFF4BFF4DA04F0150185280580459045A045B045C095D995F016040628064406540668068406A506BA86C406D206E506FA88A01C1
:40390000A701B101B401C034C101C9FFCAFFCBFFCDAFCE07CF01D018D804D904DA04DC99DD09DF01E040E280E440E540E680E840EA50EBA8EC40ED20EE50EFA800420520F1
:4039400009080A01100218401A151D1021A9230226012F103120390241804210430445814704480170028110858096019B409C55A601A701AB40B540C049C205C401CA4097
:40398000CC04CE01D0DAD208E402EA4003011D0131013F0140314104455C4620470E483B49FF4AFF4BFF4DAF4E074F015018540759045A045B045D995F01604062806440D6
:4039C0006540668068406A506BA86C406D206E506FA8278037403F024230460247064F0654015501562A5E145F806608670492049B46A401A501A701A920AF10B055CC10D6
:403A0000CE80D0D0D670D86058806B106D40720277027B0281408302D480DAC0DCE0E6A064806702831087029C809E029F10A702D680D880E2300308074082029E02A8805F
:403A4000B701C060E620EE80AB40AF08ECC080209C20052808200C020D10608084809C20C005C207D802B002B138EA05EE0511011201130102000F4036300F4016310F4076
:403A800049320F4029330F404C340F4028350F4023360F401B370F400C400F400B410F4009420F4003430F4001440F4001450F400A460F4004470F4003600F400304050642
:403AC0000708090A0B0C0E0F101112131415161718191B1C1D1E1F2021222325262728292A2B2E2F3031323334350000737172740000000004220000D2200000D82100000D
:403B0000C8200000D8210000E2210000D8210000C8200000D2200000D2200000E2210000C8200000BE200000BE200000BE200000342400004C2A00000C2900000C2900001F
:403B40000A290000242A0000242A0000162A00000A290000242A0000162A0000242A00000A2900002C2A00002C2A00002C2A00002C2C00004300303132333435363738394A
:403B80006162636465666768696A6B6C6D6E6F707172737475767778797A0000F8B5C046F8BC08BC9E467047BD020000D5060000F8B5C046F8BC08BC9E4670479502000029
:403BC000D03B0000C0000020C0000000A0000000000000000000000001000000000000000000000000807640CDCCCCCCCCCCFC3F00000000008096400100000000000000E8
:403C0000000000000020AC40010000000000C05D80BB000030000000006CDC02F00000000404040001000000000000000000000000000000000000000000000000000000A8
:403C40000000000000000000743B00000000000000000000000000000000000000000000000000000000000000000000000000000000000000000000000000000000000095
:403C800000000000000000001801002000000000000000000000000000000000000000000000000000000000000000000000000000000000000000000000000000000000CB
:403CC00000000000000000000000000000000000000000000000000000000000000000000000000000000000000000000000000000000000000000000000000000000000C4
:403D00000000000000000000000000000000000000000000000000000000000000000000000000000000000000000000000000000000000000000000000000000000000083
:403D40000000000000000000000000000000000000000000000000000000000000000000000000000000000000000000000000000000000000000000000000000000000043
:403D80000000000000000000000000000000000000000000000000000000000000000000000000000000000000000000000000000000000000000000000000000000000003
:020000040003F7
:0200000490303A
:0200000008D323
:0200000490402A
:4000000000000000000000000000000000000000000000000000000000000000000000000000000000000000000000000000000000000000000000000000000000000000C0
:400040000000000000000000000000000000000000000000000000000000000000000000000000000000000000000000000000000000000000000000000000000000000080
:0200000490501A
:0C0000000002101311A0000110271A7359
:0200000490600A
:0100000001FE
:00000001FF