:400000000080002011000000150400001504000010B500F007FAC04610B51222184B1A60302000F09FFC174A174B1A600024174B1C60174B174A1A60BC218901164A1160BC
:40004000164A1A6088218901154A1160154A1A6080221206144B1A608022D202134B1A604222134B1A60013A124B1A601249082000F0C2FB082000F0B3FB104B1C6010BD01
:40008000300010400600008004010B40000301400000014040FF00800803014042FF00800403014041FF008008010B4000010B404C01014008010140E10B00000C020B40D4
:4000C00070B572B60122514B1A7000240FE050486200131959000B00411889881A5AC31858880004104300F08BF90134E4B2022CEDD9002411E0464EA20013195900711851
:400100008D8AC88A000428430A8B498B09041143802200F07BF90134E4B2002CEBD03C4920313C4800F042F9AA223B4B1A60CC2292053A4B1A60EE221202394B1A609922B3
:40014000384B1A60C0229200374B1A60374A384B1A6099231B04374A136080218903364A1160364A1360C021C905354A1160354A1360354A1360354A1360354A13608021AC
:400180004904344A1160344A13600F23334A1360334A136033490B783C22934314221343DBB20B70304A117816230B43DBB2137002232E4A136031212D4A1160BF202D4AFF
:4001C00010602D482D4A1060C0202D4A1060D82000042C4A106048202B4A106004222B480260D82424012A4804602A4803602A4801602A490B602A4B1A607D32FF32294B82
:400200001A60FFF709FF00F0EBF870BD1C700F40C8170000C81C0000000002400001024000030240000402400005024003030300000B024000500F4008500F4010500F4006
:4002400018500F4020500F4040500F4050500F4060500F4068500F4070500F402000104000800F4001700F4000700F400000044008000440000B044096654500080B0440F1
:400280000001044008010440080204400C02044008030440000404400804044018040440000504400805044010B5064C2378002B07D1054B002B02D0044800E000BF01231A
:4002C000237010BD6001002000000000C4170000084B10B5002B03D00749084800E000BF07480368002B00D110BD064B002BFBD09847F9E70000000064010020C417000004
:40030000C00000200000000010B5002000F0D4F8002000F0EDF800F071FD10BD10B5002000F0CAF800F0A0FD10BDC04610B5002000F0C2F800F0D0FD10BDC04670B50C4B8A
:400340001A685B6800F096FE01F0AAF9040000F0D5F80500200000F0E7F8E017EB0FAC425841C0B200F02CF9012000F0A5F870BDC800002010B562B6084800F031FD08480E
:4003800000F064FD074800F099FD00F009F900F08DFC00200449FFF7D1FFFEE7090300001D0300002D03000000E07040F0B50025002711E0BB00C658F3B2FF22964308E066
:4003C0006A008A181478A419527822700135013BDBB2002BF4D10137102FEBD9F0BDC0460323044A1360044A13600022034B1A607047C0463000304030003140000E3F4052
:4004000010B50A00002101F0D4F910BD10B501F0C7F910BD10B501F097F903680C2B00D1FEE7FEE770B50F4E0F4D13E029686B68AC68002202E001C901C30432A242FAD1BB
:40044000E868002202E0002102C304328242FAD11035013E002EE9D101F07CF9FFF78AFFFEE7C04601000000241E000010B50E4A136801218B43136000230AE0032B03D8ED
:400480009A000A49505800E009489900094A885001332F2BF2D9FFF713FE034A116801230B43136010BDC04600001040000000001504000000000020014B18707047C046BA
:4004C00073000F40034A117880235B420B43DBB21370704771000F40014B18707047C04683000F40014B1878C0B2704763000F40014B18607047C04610200F40024B1B7855
:40050000024B18687047C04604000F4010210F40014B18687047C04610210F40014B18607047C04690200F40014B18607047C046D0200F4010B501E0FFF7EAFFFFF7D2FFC9
:400540004306F9D410BDC04610B5134B1A7807218A431A701A7804398A431A70FFF7EAFF022464422000FFF7D9FF2000FFF7C0FF0120FFF7B1FFFFF7B5FF8020FFF7D4FFF0
:4005800000F0BBFC054A117810230B43DBB2137000F0B7FC10BDC04671000F4093000F4010B5064B1B78002B04D1FFF7CDFF0122024B1A70FFF786FF10BDC0467C010020C3
:4005C000014B18707047C04672000F40074B1B78272B05D8064B1B78DBB2064A136004E0054B1B78DBB2034A1360704702F3FF0F42F3FF0F20FF0B40C1F1FF0F00230AE019
:40060000204A12683F210A401F49C95C8A4201D1033303E001332D2BF2D903231B4A12781B2A16D8302B05D1194B1B78DBB2194A136006E0182B04D1174B1B78DBB2154ADF
:40064000136016490B681F229343173A13430B6016E0302B05D1124B1B78DBB20D4A136006E0182B04D10F4B1B78DBB2094A13600A4A13681F218B430B4909780B431360ED
:400680007047C0462CFF0B408C1D000002F3FF0F3FF3FF0F28FF0B403EF3FF0F34FF0B40C3F1FF0FC2F1FF0FC0F1FF0F00230AE00D4A12683F210A400C49C95C8A4201D10A
:4006C000033303E001332D2BF2D9032308490868084A02400A60084A944663441B78DBB2064A13607047C0462CFF0B408C1D000000002240FFFFFFBF4DF3FF0F28FF0B4035
:40070000034B18688023DB05184000D0012070470000224010B50B4A136801218B431360094B1A68094B1A60094A12685A60FFF765FFFFF74BFF074A116802230B43136099
:4007400010BDC04650000C4034FF0B408001002020FF0B4024002C4030B500230AE0134A12683F210A401249C95C8A4201D1033303E001332D2BF2D903230E490A680220DF
:4007800082430A600C4C21681F2291430B4805682A400A4322604168094A1160094A944663441B78DBB2084A136030BD2CFF0B408C1D000024002C4034FF0B40800100203A
:4007C00020FF0B404DF3FF0F28FF0B40034B1B680220184000D001207047C04624002C401F2318401E3B8340014A13607047C04600E100E001BE704770B504000D001F2861
:4008000002D90020FFF7F6FF1034A40080239B059C4664442068256070BDC04610B5040006E0084B586800F05FFB074B9C46644480231B029C42F4D8024B9868604300F0AB
:4008400053FB10BDE00000200080FFFF70B582B000F070F9002862D000F04FFB0500314A116801230B43136000230AE02E4A12683F210A402D49C95C8A4201D1033303E0C2
:4008800001332D2BF2D903230021294A1160294A1268D20606D1274802681F318A4313390A430260244C2168244A1140244A5A438023DB019C466244D20B013A5205520D91
:4008C0000B001343A0225203134323601D4B1B680193302000F018FB1B4A13688021C9050B4313602668194B1E40002407E00120FFF794FF1034A30533430F4A1360EE2C78
:40090000F5D90120FFF78AFFFF239B051E430A4B1E60019A0B4B1A60280000F0F2FA02B070BDC04650000C402CFF0B408C1D000028FF0B4034FF0B400800224000F800C032
:4009400040420F003000104000002240FFFF3FC010B5034B1B7B584300F0C6FA10BDC046E0000020F0B55F4656464D464446F0B483B0040000F0C1FA0190FFF7C1FE002849
:4009800004D0FFF793FE01239A4601E000239A46FFF71CFF002808D0182C01D0302C07D1FFF7DAFE01239B4604E000239B4601E000239B46E61E2D2E74D8464B1B78DBB29E
:4009C0009C4208D8444B1B78DBB29946434B1B78DBB2984631E0424B1B78DBB29C4208D8404B1B78DBB299463F4B1B78DBB2984623E03E4B1B78DBB29C4208D83C4B1B780D
:400A0000DBB299463B4B1B78DBB2984615E03A4B1B78DBB29C4208D8384B1B78DBB29946374B1B78DBB2984607E0364B1B78DBB29946354B1B78DBB29846344B9F5D2F2FAE
:400A400009D92A2C07D91922314B1A60052000F04BFA192503E02E4B1D683F231D40BD4206D92A4B9A5D2A4B1A60052000F03CFA254B9C4664442378DBB2264A1360264BFB
:400A80004A461A60254B42461A600520FFF760FFBD420AD21D4B9A5D1D4B1A60052000F023FA02E00020FFF7A5FE5346012B01D1FFF7CCFE5B46012B01D1FFF72BFE0198A9
:400AC00000F01FFA03B03CBC90469946A246AB46F0BDC04640F3FF0F41F3FF0F42F3FF0F43F3FF0F44F3FF0F45F3FF0F46F3FF0F47F3FF0F48F3FF0F49F3FF0F4AF3FF0FFF
:400B00004BF3FF0F4CF3FF0F4DF3FF0F8C1D00002CFF0B4028FF0B401CFF0B4020FF0B40034B1868C0231B02184000D00120704700010B40034B1B68002B01DA012000E07B
:400B4000002070470000224010B500F0D6F9044A1368C02109020B43136000F0D2F910BD00010B4010B500F0C8F908490A68084B1A408024E40122430A600A6813408022C9
:400B8000120213430B6000F0BCF910BD00010B40FF3FFFFF70B5050000F0AFF90400FFF7BFFF002803D0FFF7DDFF012100E0002108482840084A1568084B2B4018431060EC
:400BC0001368012901D1FFF7BFFF200000F099F970BDC0460404040010020B40FBFBFBFF10B5244B1B685B0715D5234B5B685B070ED5224B596A042001401F4C62688A438C
:400C000062605A6A82435A629B69002B00D098470420FFF7BFFF174B1B685B0518D5164B5B685B0510D5154B596A8022D2001140114842688A434260596A114A0A405A62DE
:400C4000DB69002B00D098478020C000FFF7A2FF084B1B685B030CD5074B5B685B0304D5064B1B6A002B00D098478020C002FFF791FF10BD10020B40F4000020A001002067
:400C8000FFFBFFFF10B500F075F810BD10B500F01DF810BD10B5044A1368802109060B431360FFF7EFFF10BD0000244010B5064B1B78002B04D1FFF7E9FF0122024B1A7021
:400CC000FFF7E8FF10BDC046C8010020154A164B1A600023154A13601549164A1160164A16490A6007201649086016490B6006381549086015490A60154A13600421154AFA
:400D00001160154A1360154A1360154A1360154A1360154A1360154A13601268144B1A807047C0460B000002000024404000244001000A004800244007000080000324406C
:400D4000040324401003244044002440000224400402244050002440880E2440C80E2440480F2440080F2440C80F2440880F2440CA01002005490B68F0229343603A134341
:400D80000B60034B1A88034B1A60704700040240CA010020880F2440014B98647047C0460000002010B5040000F0A7F8044A1168044B0B40A4051C43146000F0A2F810BD7C
:400DC00000E400E0FFFF3FFF0422014B1A60704700E100E00422014B1A60704780E100E010B50400FFF7F6FF2000FFF7D5FF0320FFF7D8FFFFF7E8FF10BDC0460422014BFB
:400E00001A60704780E200E0014BD8647047C0460000002010B5040000F06FF8044A13689B009B08A4071C43146000F06AF810BD00E400E00822014B1A60704700E100E0EA
:400E40000822014B1A60704780E100E010B50400FFF7F6FF2000FFF7D7FF0320FFF7DAFFFFF7E8FF10BDC0460822014B1A60704780E200E0014B58647047C046000000207A
:400E800010B5040000F039F8044A1168044B0B40A4031C43146000F034F810BD00E400E0FF3FFFFF0222014B1A60704700E100E00222014B1A60704780E100E010B5040077
:400EC000FFF7F6FF2000FFF7D5FF0320FFF7D8FFFFF7E8FF10BDC0460222014B1A60704780E200E0000000000230800803D00138FDD1C046C046C0467047EFF3108072B6A3
:400F0000704780F31088704770B50400FFF7F5FF0500102C05D8104A136803218B43136016E0202C07D80C490B6803229343023A13430B600CE0302C07D807490B680322DD
:400F40009343013A13430B6002E00020FFF752FC2800FFF7D6FF70BD30001040002243088B4274D303098B425FD3030A8B4244D3030B8B4228D3030C8B420DD3FF2209027E
:400F800012BA030C8B4202D31212090265D0030B8B4219D300E0090AC30B8B4201D3CB03C01A5241830B8B4201D38B03C01A5241430B8B4201D34B03C01A5241030B8B423D
:400FC00001D30B03C01A5241C30A8B4201D3CB02C01A5241830A8B4201D38B02C01A5241430A8B4201D34B02C01A5241030A8B4201D30B02C01A5241CDD2C3098B4201D3F6
:40100000CB01C01A524183098B4201D38B01C01A524143098B4201D34B01C01A524103098B4201D30B01C01A5241C3088B4201D3CB00C01A524183088B4201D38B00C01A50
:40104000524143088B4201D34B00C01A5241411A00D20146524110467047FFE701B5002000F006F802BDC0460029F7D076E770477047C046F0B556464D4644465F46F0B44E
:401080001D000E034C00CB0F87B0070092468146360B640D98466AD06D4B9C4235D08022430F12041343F6001E43C3009946694B00279C460023644402932B0368001B0B68
:4010C000ED0F51469B46400D009500D178E0604B98426CD05B46DA004B0F802109040B4313439B465346D9005A4B9C46002360444246201A6A40924601901F430F2F00D99A
:40110000B0E05548BF00C0598746374300D088E0002399460233082700260293CDE74346B34649460093029B009A9246022B00D0BFE1002153460122002689461A40444B4B
:40114000002136030C0D2405360B2643434C1B0526401E437600D207760816434846310007B03CBC90469946A246AB46F0BD330003434FD0002E00D1BCE1300000F0C6FAD0
:4011800003000B3B1C2B00DDADE11D220100D31A08393A008F408E40DA40B9461643304B00279C46002360444442029385E753465A4613432CD1002300219B46023397E747
:4011C0000B4320D05B46002B00D19EE1584600F09DFA03000B3B1C2B00DD8FE102005946083A91408B461D21CB1A5146D9400B0059460B4351469B469140194B9C46604410
:401200004042002374E7002300219B4601336FE703236DE70023994601330427002602934BE703230C27029347E70122D51A382D00DCB0E153461A4000210023002689460B
:401240007EE700238026994600223603004B77E7FF07000001FCFFFFBC1D0000FFFF0F80F30300005E4500D972E100D16DE1019B4D46013B01930023340002935B461E0266
:401280000B0E1E430B020393330C994633041B0C494620000093FFF761FE009B370043430600494620009846FFF7DEFE2C0C09040C43A04509D9E419731EA74200D95CE159
:4012C000A04500D859E1023EE4194346E41A49462000FFF743FE0300009A80465343494620009B46FFF7C0FE2A040904120C0A4393450DD94346D219013B974200D93AE12F
:40130000934500D837E102235B429C46D219E0445B46D21A4346360433439B460399180C0B0C1D00059309045B46090C0C001B041B0C4443049159436B4368431B190D0C8C
:40134000EB189C4203D980246402A44660441C0C09041B04090C20185D18824200D2DEE000D1D7E0161A029B9C465D1BAC459B415B42F61AB74200D106E149463000FFF71F
:40138000EDFD009B04004343494630009846FFF76BFE2E0C09040E43B04509D9F619631EB74200D9F3E0B04500D8F0E0023CF6194346F31A494618000293FFF7CFFD009B65
:4013C00006004343494602989846FFF74DFE2D0409042D0C0D43A84509D9ED19731EAF4200D9D6E0A84500D8D3E0023EED192404210043463143049E059A3000ED1A0B04E1
:401400000C0C1B0C58436643534354439A19030C9B189E4203D980225202944664441A0C00041B04000C14191B18A54250D34DD001231943964A019B94466344002B00DCF3
:40144000F3E64A0709D00F220A40042A05D00A1D8A42894149428B4411005A46D20108D55A468C4B1A4093468022D2009446019B6344894A934200DD5BE65A46C9085007AA
:4014800008435602514601225B058146360B5B0D0A4055E680231B031E4211D05A461A420ED15E461E433603360B2A0089467B4B46E6032B00D1E1E0012BBBD11A40BBE6C0
:4014C0001E433603360B4246744B39E6002BB1D07D194A1EAF4252D91100A542A8D1039A9A42A5D1A6E703003E00283B9E400023994654E600F00AF9203041E60300524635
:40150000283B9A400021934677E6504600F0FEF820305EE6029B0026AB4200D323E7039E0299B44661448846B045B6415B467642F619B218013B0291974213D290424FD82D
:4015400000D18EE0161A9B460DE7894500D28EE674084B46F60735005B081D434B46DB0702938BE69742EDD10399029CA142E5D93E1A9B46F7E69846CAE61E00A5E6AC42EB
:401580003ED874D0110053E70121494252E71C000EE71E002BE71F2D3CDC20230A0058465B1B9840EA4099400243481E81415E461143EE404B0709D00F230B40042B05D080
:4015C0000B00191D99429B415B42F61833023CD55346012200211A40002601238946AFE502235B429C46039CE344A446029B63449846A045B6417642F6190293B218B1E60F
:4016000003988A1E41008142B6417642F619AD19039161E71F225242D31A5A46DA401300202D29D040225846551BA8400143481E814107200B4318400026002809D00F2245
:4016400000261A401900042ABBD10B0070077602360BDB0803439946012253461A4000236EE502998D42BBD89B4600267BE603989842C5D3110032E70020D7E780265B4687
:4016800036031E433603360B009A8946034B57E5FF030000FFFFFFFEFE070000FF0700000B0330B5134D1A0B4B005B0DC90F0024AB4211DD104CA34210DC8024640322437C
:4016C0000E4CE41A1F2C0CDD0D48C31ADA4013005C42002900D11C00200030BD094BCC18FAE7E040084CA44663449A4013000343EEE7C046FE0300001D04000033040000B9
:4017000013040000FFFFFF7FEDFBFFFF1C2101231B04984201D3000C10391B0A984201D3000A08391B09984201D30009043902A2105C40187047C046040302020101010143
:401740000000000000000000014B18687047C0465C0100200E4B70B500251E000D4CE41AA410A54204D0AB00F35898470135F8E700F046FB084B00251E00084CE41AA41025
:40178000A54204D0AB00F35898470135F8E770BD0C1E00000C1E00000C1E0000141E0000002310B59A4203D0CC5CC4540133F9E710BD03008218934202D019700133FAE70D
:4017C000704700000000000000300F40800600370F40000100400F400008000080360F400C1D000080000000836F010502010501060109020A090D010E09120713011401D4
:401800001705180119011E051F0521052201240925012A072B012C092F013001310332043408350436023A883E113F11580459045F0182038301870D8B058D089204930DFA
:40184000970D9C01A201A30DAB05AF02B104B204B303B401B508B602BB2ABE10D280D804D904DB04DF0100040385040208040A020B880D020E021040120A13081680180812
:401880001A021B461C081E021F08200423402480253926022768288029842B042E202F42312832813608370138A03A203B0A3D223E083F40584059905A405B207680830889
:4018C000C01FC29FC41FCABFCCCFCEFF00010301042006190703082009010A110B020C010F0312011301140115011702180219011B021C041F0322212303243127012801FC
:4019000029012C192D012E202F023010310132073302342036083E553F05580459045B045F0186038F029001940499019D02A20CAF05B002B208B302B404B504B601B701EB
:40194000BE50BF44D40FD604D804D904DB04DF0101080580064807240AA00C400E800F28108014041620174919401AA81C821E142228231224202505284029202A022B4AF7
:401980002D802E2A2F0132603404352436C4370139403C223E403F284480464059405A085B126128620269406C028081812085028E028F12900894229640978A99109B68E0
:4019C0009C849D049E089F05A004A344A502A688AB84C0F4C2FCC4F8CAF8CCFCCEF8D60FD807E610EE02018203010401078009880B010F801140138117801B801D811F7E94
:401A0000211023812584270129202B812C012D803180357F36013AC03F114060410549FF4AFF4BFF4DA04F015018580459045A045B045F01604062806440654066806840B6
:401A40006A806C406D206E8081388207840186048705880189408A068E079001930196079A079B109E019F28A108A201A355A607A702A920AA01AB55AC01AF40B004B13846
:401A8000B202B340B401B503B706BA0ABBA8BE10C060C105C9FFCAFFCBFFCDAFCE07CF01D018D804D904DA04DF01E040E280E440E540E680E840EA80EC40ED20EE80000431
:401AC0000420050506010D020F1912C2130115241741180219801A021C201D061F252222242026042745288029842B042C082E402F60300831113208334036203741382867
:401B00003A403B023D0A3E10480649204C024D2058555C805E405F406101638066016780834885048740900891209214931094029640978A99109D089F05A006A105A2086C
:401B4000A344A490A528A684A70AB042B110C0F4C2F0C4F1CAFFCCBFCEEFD23CD60FEE8000010401070808010B030E0112011303140216011A011C021D011E011F02200119
:401B80002601270429022A012B012E01340135083602370738803B803E104060410549FF4AFF4BFF4DAF4E074F015018580459045A045F01604062806440654066806840DF
:401BC0006A806C406D206E8002120388042807410A060BA00E420F181104128915291622180419011A401E021F60210423402510268029802A122BC42E202F203101320200
:401C0000330835803681382839053A013B2A3F14480249284C024D2050805128530281108B44902091209206931A94049640978099209B419D08A002A208A34CA480A52867
:401C4000A680A702B055C0FFC2FFC4FFCA6DCC93CE67D23CE42053016B206F08730274208302D480DAC0DC60E6805C0861208008830187808F2097029F20A420AF08D6802C
:401C8000D840E040E620EE40008007809F80A420B120C06080208840A040A420E2809C10AC10052808100C020D105F029C10C005C207D6018B029F02B002B138E004EA0589
:401CC000EE0501011001120101000F403E300F4033310F4042320F404B330F406C340F4051350F4034360F4047370F400A400F400F410F4006420F4005430F4002450F4035
:401D000009460F4007470F4003600F400004060100080601001002010200000001200601020200010000020001000200008002010200000000400701020100FE040000FF84
:401D4000030000000002020000001005600500000004C32E3DFFFFFF00AF070118000000000000000404040000000001400080004040800040008000402080000000000077
:401D8000000000000000000000000000030405060708090A0B0C0E0F101112131415161718191B1C1D1E1F2021222325262728292A2B2E2F303132333435000064120000BD
:401DC00032110000381200002811000038120000421200003812000028110000321100003211000042120000281100001E1100001E1100001E110000941400004300000071
:401E0000F8B5C046F8BC08BC9E467047D10200006D040000F8B5C046F8BC08BC9E467047A9020000381E0000C0000020A000000070000000000000000000000000000000E1
:401E4000CDCCCCCCCCCCFC3F000000000020BC40000000000020AC40010000000000C05D80BB000030000000006CDC02F00000000404040000000000000000000000000067
:401E80000000000000000000000000000000000000000000FC1D00000000000000000000000000000000000000000000000000000000000000000000000000000000000009
:401EC0000000000000000000000000000000000000000000FC00002000000000000000000000000000000000000000000000000000000000000000000000000000000000C6
:401F000000000000000000000000000000000000000000000000000000000000000000000000000000000000000000000000000000000000000000000000000000000000A1
:401F40000000000000000000000000000000000000000000000000000000000000000000000000000000000000000000000000000000000000000000000000000000000061
:401F80000000000000000000000000000000000000000000000000000000000000000000000000000000000000000000000000000000000000000000000000000000000021
:401FC00000000000000000000000000000000000000000000000000000000000000000000000000000000000000000000000000000000000000000000000000000000000E1
:020000040003F7
:0200000490303A
:020000009083EB
:0200000490402A
:4000000000000000000000000000000000000000000000000000000000000000000000000000000000000000000000000000000000000000000000000000000000000000C0
:400040000000000000000000000000000000000000000000000000000000000000000000000000000000000000000000000000000000000000000000000000000000000080
:0200000490501A
:0C0000000002101311A00001101CA2232C
:0200000490600A
:0100000001FE
:00000001FF